S01A00006F626A6563745F6F7269656E746174696F6E2E7372656388
S11300000C945F000C947C000C947C000C947C0099
S11300100C947C000C947C000C947C000C947C006C
S11300200C947C000C94AA120C947C000C94A913DC
S11300300C947C000C947C000C947C000C947C004C
S11300400C947C000C947C000C947C000C947C003C
S11300500C947C00036EDB363D9A9999993DABAACA
S1130060AA2A3E000000803F084AD73B3BCE016EDF
S113007084BCBFFDC12F3D6C74319ABD56833DDAFB
S11300803D00C77F11BED9E4BB4C3E916BAAAABE0A
S1130090000000803F072C7AA5BA6CC590DA3B9328
S11300A065FC8BBC53F810FD3C5692834DBD879D77
S11300B03AB63DCBC9BF5BBE73DA0FC93F0011240A
S11300C01FBECFE5D4E0DEBFCDBF10E0A0E6B0E0B8
S11300D0E6E9FEE202C005900D92A836B107D9F711
S11300E020E0A8E6B0E001C01D92A03AB207E1F713
S11300F00E947E000C9449170C9400000E94CB01CE
S1130100FFCFAF92BF92CF92DF92FF920F931F93D4
S1130110CF93DF936623B9F1C52FD42FF62E182F72
S113012080ED0E94DC12812F0E94261383E08A95C1
S1130130F1F7000081ED0E94DC120D2F1C2FCC245E
S1130140CA94CF0CD12CEFEFCE1ADE0AC0E0D0E077
S1130150AF2CB12CF1E0AF1AB108AC16BD0629F4EE
S11301600E945813F801808304C00E944213F801CE
S1130170808321960F5F1F4FCC15DD0571F7CF2DBE
S11301800E94191301C0C0E08C2FDF91CF911F9101
S11301900F91FF90DF90CF90BF90AF900895AB0187
S11301A061E00E9481000895EF92FF920F931F93E4
S11301B0CF93DF936623D1F07A01162FC82F80EDF9
S11301C00E94DC128C2F0E942613E7016FEF610F4F
S11301D0062F10E00F5F1F4F0E0D1F1D89910E9407
S11301E02613C017D107D1F70E941913DF91CF91BD
S11301F01F910F91FF90EF900895CF93DF931F927B
S1130200CDB7DEB76983AE014F5F5F4F61E00E94F7
S1130210D4000F90DF91CF910895FF920F931F9315
S1130220CF93DF931F92CDB7DEB7F62E8A01BE01BE
S11302306F5F7F4F0E94CF0021E030E002C0220FA9
S1130240331FFA94E2F799812923F80120830F9050
S1130250DF91CF911F910F91FF900895EF92FF923C
S11302600F931F93CF93DF931F92CDB7DEB7442331
S113027089F1F22E142F062FE82E1982BE016F5F2A
S11302807F4F0E94CF00882329F1402F50E0411B6B
S113029051094F5F5F4F81E090E002C0880F991FC2
S11302A01A95E2F70197042E02C0880F991F0A9449
S11302B0E2F72F2D30E002C0220F331F4A95E2F7F8
S11302C0682F6095998169238223682B69838E2D19
S11302D00E94FD000F90DF91CF911F910F91FF902D
S11302E0EF900895FF920F931F93CF93DF931F9284
S11302F0CDB7DEB7182F062FF42EBE016F5F7F4FE8
S11303000E94CF00FF2051F061E070E002C0660F50
S1130310771F0A95E2F78981682B0AC061E070E0D3
S113032002C0660F771F0A95E2F7609589816823FA
S11303306983812F0E94FD000F90DF91CF911F915F
S11303400F91FF90089540E066E08BE60E947201F1
S113035008958CE30E94DC1280E00E94261388E753
S11303600E9426130E9419138CE30E94DC1281E080
S11303700E94261380E00E9426130E9419138CE326
S11303800E94DC1282E00E94261380E00E94261361
S11303900E9419130895EF92FF920F931ABAE12C59
S11303A0F12C00E021E040E052E16AE770E080E0F7
S11303B096E90E946E1378940E94D81283E08A957D
S11303C0F1F7000087EA91E60197F1F700C0000019
S11303D00E94A30183EC99E00197F1F700C00000AB
S11303E021E043E062E08BE60E942E0123E043E03B
S11303F062E08AE10E942E0164E089E10E94FD002E
S113040023E042E064E08BE10E942E0120E042E020
S113041064E08CE10E942E010E94A90183B78460EC
S113042083BF89B7816089BF0F91FF90EF900895D2
S11304308CE30E94DC1283E00E94261383E08A95F9
S1130440F1F700008DE30E94DC120E9442130E9427
S113045042130E9442130E9442130E9442130E94BC
S113046058130E94191308950E94CE169B01AC01E3
S113047060E070E080E89FE30E94CF1408954F92FB
S11304805F926F927F928F929F92AF92BF92CF9220
S1130490DF92EF92FF920F931F93CF93DF93CDB729
S11304A0DEB7A4970FB6F894DEBF0FBECDBF698741
S11304B07A878B879C872D873E874F87588BE98A5D
S11304C0FA8A0B8B1C8B20E030E0A901C601B50130
S11304D00E94CA14811117C020E030E0A9016FA95D
S11304E078AD89AD9AAD0E94CA1481110CC020E088
S11304F030E0A9016BAD7CAD8DAD9EAD0E94CA14F8
S1130500882309F461C2A6019501C601B5010E94C0
S11305105B162B013C012FA938AD49AD5AADCA0178
S1130520B9010E945B169B01AC01C301B2010E9498
S1130530D1132B013C012BAD3CAD4DAD5EADCA01D9
S1130540B9010E945B169B01AC01C301B2010E9478
S1130550D1130E9434022B013C019B01AC01C60162
S1130560B5010E945B1669837A838B839C83A30104
S113057092016FA978AD89AD9AAD0E945B166D8327
S11305807E838F839887A30192016BAD7CAD8DAD83
S11305909EAD0E945B166D8B7E8B8F8B988F6091C6
S11305A088007091890080918A0090918B0020913D
S11305B080003091810040918200509183008090AE
S11305C0600090906100A0906200B0906300409041
S11305D084005090850060908600709087000E948F
S11305E05B166B017C01A3019201C501B4010E9459
S11305F05B169B01AC01C701B6010E94D013698F41
S11306007A8F8B8F9C8F60916000709161008091D4
S1130610620090916300209188003091890040919C
S11306208A0050918B008090840090908500A09067
S11306308600B090870040908000509081006090C8
S11306408200709083000E945B166B017C01A30101
S11306509201C501B4010E945B169B01AC01C70164
S1130660B6010E94D1136D8F7E8F8F8F98A36091F6
S1130670600070916100809162009091630020910C
S1130680600030916100409162005091630080905D
S1130690800090908100A0908200B09083004090F0
S11306A080005090810060908200709083000E94CE
S11306B05B1620E030E040E05FE30E94D0136B0162
S11306C07C01A3019201C501B4010E945B169B0148
S11306D0AC01C701B6010E94D1136B017C019B01DF
S11306E0AC016D817E818F8198850E945B164B01E0
S11306F05C012D8D3E8D4F8D58A16D897E898F892A
S1130700988D0E945B169B01AC01C501B4010E9447
S1130710D01369A37AA38BA39CA3298D3A8D4B8D07
S11307205C8D6D897E898F89988D0E945B164B0143
S11307305C01A701960169817A818B819C810E9469
S11307405B169B01AC01C501B4010E94D0134B019F
S11307505C012D8D3E8D4F8D58A169817A818B81ED
S11307609C810E945B166B017C01298D3A8D4B8D17
S11307705C8D6D817E818F8198850E945B169B01C3
S1130780AC01C701B6010E94D0136B017C016091DA
S11307908C0070918D0080918E0090918F0020E0EC
S11307A030E0A9010E944E1618160CF0ABC020913F
S11307B08C0030918D0040918E0050918F004090BC
S11307C07C0050907D0060907E0070907F0069A155
S11307D07AA18BA19CA10E945B162DEB37E346E026
S11307E05CE30E945B16A30192010E94D113609303
S11307F07C0070937D0080937E0090937F00209115
S11308008C0030918D0040918E0050918F0040906B
S113081078005090790060907A0070907B00C50158
S1130820B4010E945B162DEB37E346E05CE30E94C3
S11308305B16A30192010E94D11360937800709318
S1130840790080937A0090937B0020918C00309102
S11308508D0040918E0050918F0040907400509014
S113086075006090760070907700C701B6010E9411
S11308705B162DEB37E346E05CE30E945B16A301B5
S113088092010E94D1136093740070937500809359
S113089076009093770020917C0030917D00409108
S11308A07E0050917F0069857A858B859C850E94A6
S11308B0D11369877A878B879C8720917800309140
S11308C0790040917A0050917B006D857E858F85FB
S11308D098890E94D1136D877E878F87988B20918A
S11308E074003091750040917600509177006989C9
S11308F07A898B899C890E94D113698B7A8B8B8B23
S11309009C8B18C010927C0010927D0010927E0087
S113091010927F00109278001092790010927A0061
S113092010927B0010927400109275001092760061
S11309301092770020916400309165004091660028
S11309405091670069A17AA18BA19CA10E945B16BA
S11309509B01AC0169857A858B859C850E94D113A6
S113096069877A878B879C87209164003091650022
S11309704091660050916700C501B4010E945B1666
S11309809B01AC016D857E858F8598890E94D1136A
S11309906D877E878F87988B2091640030916500E6
S11309A04091660050916700C701B6010E945B1632
S11309B09B01AC0169897A898B899C890E94D11336
S11309C0698B7A8B8B8B9C8B2DEB37E346E85BE34F
S11309D069857A858B859C850E945B1669877A87F1
S11309E08B879C872DEB37E346E85BE36D857E853B
S11309F08F8598890E945B166D877E878F87988B79
S1130A002DEB37E346E85BE369897A898B899C8916
S1130A100E945B16698B7A8B8B8B9C8BE0906000B9
S1130A20F09061000091620010916300ED82FE82FB
S1130A300F8318878090880090908900A0908A0086
S1130A40B0908B00E0908400F090850000918600C7
S1130A5010918700ED8AFE8A0F8B188F40908000DA
S1130A60509081006090820070908300C09060007C
S1130A70D0906100E0906200F0906300C501B40181
S1130A80905829853A854B855C850E945B1669835D
S1130A907A838B839C832D893E894F89588D6D85FC
S1130AA07E858F8598890E945B169B01AC016981C4
S1130AB07A818B819C810E94D01369837A838B8392
S1130AC09C83A301920169897A898B899C890E94FC
S1130AD05B169B01AC0169817A818B819C810E94A8
S1130AE0D013A70196010E94D11360936000709304
S1130AF06100809362009093630040908000509066
S1130B0081006090820070908300C0908800D09033
S1130B108900E0908A00F0908B002D813E814F8106
S1130B20588569857A858B859C850E945B166983C7
S1130B307A838B839C832D893E894F89588D69895B
S1130B407A898B899C890E945B169B01AC0169811F
S1130B507A818B819C810E94D11369837A838B83F0
S1130B609C83A30192016D857E858F8598890E945F
S1130B705B169B01AC0169817A818B819C810E9407
S1130B80D013A70196010E94D1136093880070933B
S1130B90890080938A0090938B004090800050904D
S1130BA081006090820070908300C0908400D09097
S1130BB08500E0908600F09087002D813E814F8172
S1130BC058856D857E858F8598890E945B1669831B
S1130BD07A838B839C83A501940169897A898B89A3
S1130BE09C890E945B169B01AC0169817A818B818F
S1130BF09C810E94D01369837A838B839C83A30195
S1130C00920169857A858B859C850E945B169B0180
S1130C10AC0169817A818B819C810E94D113A701E7
S1130C2096010E94D1136093840070938500809391
S1130C30860090938700C0908000D0908100E0905F
S1130C408200F09083002D813E814F81588569890F
S1130C507A898B899C890E945B162B013C01A50132
S1130C6094016D857E858F8598890E945B169B0112
S1130C70AC01C301B2010E94D1134B015C012D8967
S1130C803E894F89588D69857A858B859C850E941C
S1130C905B169B01AC01C501B4010E94D013A701EE
S1130CA096010E94D1136093800070938100809319
S1130CB08200909383006091600070916100809144
S1130CC06200909163002091600030916100409136
S1130CD06200509163008090880090908900A090F9
S1130CE08A00B0908B0040908800509089006090FA
S1130CF08A0070908B00E0908400F0908500009151
S1130D00860010918700E986FA860B871C87E0909D
S1130D108400F09085000091860010918700ED8694
S1130D20FE860F87188BE0908000F0908100009180
S1130D30820010918300E982FA820B831C83E09085
S1130D408000F09081000091820010918300E98A74
S1130D50FA8A0B8B1C8B0E945B166B017C01A3012E
S1130D609201C501B4010E945B169B01AC01C7014D
S1130D70B6010E94D1134B015C012D853E854F8540
S1130D80588969857A858B859C850E945B169B01B1
S1130D90AC01C501B4010E94D1134B015C01298946
S1130DA03A894B895C8969817A818B819C810E9413
S1130DB05B169B01AC01C501B4010E94D1130E94D2
S1130DC034026B017C0120916000309161004091FC
S1130DD06200509163000E945B1660936000709300
S1130DE061008093620090936300209188003091A9
S1130DF0890040918A0050918B00C701B6010E947E
S1130E005B16609388007093890080938A009093A6
S1130E108B00209184003091850040918600509190
S1130E208700C701B6010E945B166093840070932B
S1130E3085008093860090938700209180003091F4
S1130E4081004091820050918300C701B6010E9445
S1130E505B1660938000709381008093820090936E
S1130E608300A4960FB6F894DEBF0FBECDBFDF910A
S1130E70CF911F910F91FF90EF90DF90CF90BF9093
S1130E80AF909F908F907F906F905F904F90089558
S1130E902F923F924F925F926F927F928F929F9286
S1130EA0AF92BF92CF92DF92EF92FF920F931F9374
S1130EB0CF93DF93CDB7DEB7C855D1090FB6F894F9
S1130EC0DEBF0FBECDBF698B7A8B8B8B9C8B298F3A
S1130ED03A8F4B8F5C8FE982FA820B831C83AE9628
S1130EE0FFACAE97AF96EFACAF97E0969FACE097B0
S1130EF0E1968FACE197E2961FADE297E3960FADD2
S1130F00E397E4963FACE497E5962FACE59720E0B1
S1130F1030E0A901E9966CAD7DAD8EAD9FADE9974A
S1130F200E94CA14811138C020E030E0A901ED9676
S1130F306CAD7DAD8EAD9FADED970E94CA1481114D
S1130F402BC020E030E0A901C358DF4F68817981CC
S1130F508A819B81CD57D0400E94CA1481111CC044
S1130F602F923F920F931F938F929F92EF92FF9233
S1130F70E980FA800B811C81298D3A8D4B8D5C8D23
S1130F8069897A898B899C890E943F020FB6F894FB
S1130F90DEBF0FBECDBFA6C720E030E0A901C60169
S1130FA0B5010E94CA14811117C020E030E0A901E4
S1130FB06F2D7E2D892D982D0E94CA1481110CC08D
S1130FC020E030E0A901612F702F832D922D0E9423
S1130FD0CA14882309F439C5A6019501C601B501CF
S1130FE00E945B162B013C012F2D3E2D492D582DBF
S1130FF06F2D7E2D892D982D0E945B169B01AC01CF
S1131000C301B2010E94D1132B013C01212F302FC7
S1131010432D522D612F702F832D922D0E945B162C
S11310209B01AC01C301B2010E94D1130E9434029E
S11310302B013C019B01AC01C601B5010E945B166A
S11310406DAB7EAB8FAB98AFA30192016F2D7E2D5C
S1131050892D982D0E945B1669AF7AAF8BAF9CAF38
S1131060A3019201612F702F832D922D0E945B1694
S113107021966CAF7DAF8EAF9FAF2197E9962CADD3
S11310803DAD4EAD5FADE997CA01B9010E945B1653
S11310906B017C01ED962CAD3DAD4EAD5FADED9792
S11310A0CA01B9010E945B169B01AC01C701B601DC
S11310B00E94D1136B017C01C358DF4F2881398111
S11310C04A815B81CD57D040CA01B9010E945B16A9
S11310D09B01AC01C701B6010E94D1130E943402E6
S11310E06B017C019B01AC01E9966CAD7DAD8EADCD
S11310F09FADE9970E945B166D837E838F839887EB
S1131100A7019601ED966CAD7DAD8EAD9FADED97CB
S11311100E945B1669877A878B879C87A701960153
S1131120C358DF4F688179818A819B81CD57D04034
S11311300E945B166D877E878F87988B4090600036
S1131140509061006090620070906300E0906000D5
S1131150F090610000916200109163006996ECAE1A
S1131160FDAE0EAF1FAF6997609160007091610092
S113117080916200909163002091880030918900F1
S113118040918A0050918B000E945B1669A37AA358
S11311908BA39CA3609160007091610080916200B8
S11311A090916300209184003091850040918600E5
S11311B0509187000E945B166D8F7E8F8F8F98A34E
S11311C06091600070916100809162009091630071
S11311D020918000309181004091820050918300E1
S11311E00E945B166D8B7E8B8F8B988FC0908800CE
S11311F0D0908900E0908A00F0908B008091880064
S113120090918900A0918A00B0918B0089AB9AAB30
S1131210ABABBCAB609188007091890080918A006F
S113122090918B002091840030918500409186003C
S1131230509187000E945B1669A77AA78BA79CA789
S1131240609188007091890080918A0090918B0050
S11312502091800030918100409182005091830060
S11312600E945B166DA77EA78FA798AB6091840040
S11312707091850080918600909187002091840070
S11312803091850040918600509187000E945B1642
S113129025966CAF7DAF8EAF9FAF2597609184008C
S11312A07091850080918600909187002091800044
S11312B03091810040918200509183000E945B161E
S11312C029966CAF7DAF8EAF9FAF29976091800058
S11312D07091810080918200909183002091800020
S11312E03091810040918200509183000E945B16EE
S11312F06DA37EA38FA398A725962CAD3DAD4EADCF
S11313005FAD259760E070E080E09FE30E94D0131A
S11313102DA13EA14FA158A50E94D0132D966CAFCC
S11313207DAF8EAF9FAF2D972D893E894F89588D04
S113133069A57AA58BA59CA50E94D01361966CAF74
S11313407DAF8EAF9FAF61972DA53EA54FA558A940
S11313506D8D7E8D8F8D98A10E94D11365966CAF93
S11313607DAF8EAF9FAF65972D962CAD3DAD4EAD45
S11313705FAD2D976D817E818F8198850E945B166C
S11313804B015C0161962CAD3DAD4EAD5FAD6197F7
S113139069857A858B859C850E945B169B01AC01CF
S11313A0C501B4010E94D1134B015C0165962CADBB
S11313B03DAD4EAD5FAD65976D857E858F85988912
S11313C00E945B169B01AC01C501B4010E94D113BC
S11313D09B01AC010E94D1134B015C0129A93AA9DC
S11313E04BA95CA9C701B6010E945B169B01AC0125
S11313F060E070E080E09FE30E94D01369AB7AABB9
S11314008BAB9CAB29A53AA54BA55CA56D897E89C0
S11314108F89988D0E94D1132D813E814F815885EB
S11314200E945B166B017C012DA13EA14FA158A522
S113143069A97AA98BA99CA90E94D01329853A8508
S11314404B855C850E945B169B01AC01C701B6010C
S11314500E94D1136B017C0129A13AA14BA15CA18B
S113146029966CAD7DAD8EAD9FAD29970E94D013AA
S11314702D853E854F8558890E945B169B01AC01E2
S1131480C701B6010E94D1139B01AC010E94D11384
S11314906B017C01A5019401C501B4010E945B1696
S11314A06D8B7E8B8F8B988FA5019401C501B40140
S11314B00E945B164B015C01A7019601C701B601AE
S11314C00E945B169B01AC01C501B4010E94D113BB
S11314D00E94CE164B015C012D8D3E8D4F8D58A17F
S11314E06DA57EA58FA598A90E94D0136D8F7E8FC0
S11314F08F8F98A329962CAD3DAD4EAD5FAD299746
S113150069A17AA18BA19CA10E94D11369A37AA39A
S11315108BA39CA325962CAD3DAD4EAD5FAD259719
S113152069A97AA98BA99CA90E94D0136D8B7E8B83
S11315308F8B988F2D8D3E8D4F8D58A16D817E811F
S11315408F8198850E945B166B017C0129A13AA1C9
S11315504BA15CA169857A858B859C850E945B166D
S11315609B01AC01C701B6010E94D1136B017C0140
S11315702D893E894F89588D6D857E858F85988903
S11315800E945B169B01AC01C701B6010E94D113F6
S11315909B01AC010E94D1136B017C0169962CADB7
S11315A03DAD4EAD5FAD6997C301B2010E945B16BC
S11315B020E030E040E05FE30E94D0132DA13EA183
S11315C04FA158A50E94D1136DA37EA38FA398A702
S11315D0A50194012D966CAD7DAD8EAD9FAD2D977B
S11315E00E945B162B013C01A70196016D8D7E8D37
S11315F08F8D98A10E945B169B01AC01C301B201BF
S11316000E94D11369A77AA78BA79CA7A50194016F
S113161061966CAD7DAD8EAD9FAD61970E945B16FA
S11316202B013C01A701960169A17AA18BA19CA180
S11316300E945B169B01AC01C301B2010E94D1134D
S11316406DA77EA78FA798ABA501940165966CAD95
S11316507DAD8EAD9FAD65970E945B162B013C015D
S1131660A70196016D897E898F89988D0E945B16EA
S11316709B01AC01C301B2010E94D1136B017C0137
S11316802DA13EA14FA158A569AD7AAD8BAD9CADFE
S11316900E945B164B015C0129A13AA14BA15CA1FC
S11316A021966CAD7DAD8EAD9FAD21970E945B16EA
S11316B09B01AC01C501B4010E94D0134B015C0134
S11316C0A701960169857A858B859C850E945B16A6
S11316D02B013C012DA53EA54FA558A96D857E85FE
S11316E08F8598890E945B169B01AC01C301B201EE
S11316F00E94D0139B01AC01C501B4010E94D11317
S11317006D8B7E8B8F8B988F2D8D3E8D4F8D58A139
S113171021966CAD7DAD8EAD9FAD21970E945B1679
S11317204B015C012DA13EA14FA158A56DA97EA935
S11317308FA998AD0E945B169B01AC01C501B40151
S11317400E94D0134B015C0129A53AA54BA55CA5C9
S11317506D857E858F8598890E945B162B013C01DF
S1131760A70196016D817E818F8198850E945B1609
S11317709B01AC01C301B2010E94D0139B01AC01D7
S1131780C501B4010E94D1134B015C0129A13AA106
S11317904BA15CA16DA97EA98FA998AD0E945B168F
S11317A06B017C012D8D3E8D4F8D58A169AD7AADB5
S11317B08BAD9CAD0E945B169B01AC01C701B601C9
S11317C00E94D0136B017C012DA53EA54FA558A9FD
S11317D06D817E818F8198850E945B162B013C016F
S11317E029A53AA54BA55CA569857A858B859C8539
S11317F00E945B169B01AC01C301B2010E94D0138D
S11318009B01AC01C701B6010E94D1136B017C019D
S113181060918C0070918D0080918E0090918F006A
S113182020E030E0A9010E944E1618160CF0ABC05F
S113183020918C0030918D0040918E0050918F004A
S113184040907C0050907D0060907E0070907F00FE
S11318506D897E898F89988D0E945B162DEB37E305
S113186046E05CE30E945B16A30192010E94D1133F
S113187060937C0070937D0080937E0090937F0042
S113188020918C0030918D0040918E0050918F00FA
S1131890409078005090790060907A0070907B00BE
S11318A0C501B4010E945B162DEB37E346E05CE30F
S11318B00E945B16A30192010E94D11360937800E9
S11318C07093790080937A0090937B0020918C0030
S11318D030918D0040918E0050918F0040907400A3
S11318E0509075006090760070907700C701B60143
S11318F00E945B162DEB37E346E05CE30E945B1627
S1131900A30192010E94D113609374007093750037
S1131910809376009093770020917C0030917D0035
S113192040917E0050917F0069897A898B899C89D6
S11319300E94D113698B7A8B8B8B9C8B20917800BE
S11319403091790040917A0050917B00698D7A8DB5
S11319508B8D9C8D0E94D113698F7A8F8B8F9C8F76
S11319602091740030917500409176005091770079
S113197069817A818B819C810E94D11369837A83E6
S11319808B839C8318C010927C0010927D0010926F
S11319907E0010927F0010927800109279001092CD
S11319A07A0010927B0010927400109275001092CD
S11319B07600109277002091640030916500409188
S11319C06600509167006D897E898F89988D0E9489
S11319D05B169B01AC0169897A898B899C890E9479
S11319E0D113698B7A8B8B8B9C8B20916400309103
S11319F065004091660050916700C501B4010E94E2
S1131A005B169B01AC01698D7A8D8B8D9C8D0E9438
S1131A10D113698F7A8F8B8F9C8F209164003091C2
S1131A2065004091660050916700C701B6010E94AD
S1131A305B169B01AC0169817A818B819C810E9438
S1131A40D11369837A838B839C832DEB37E346E838
S1131A505BE369897A898B899C890E945B166D8313
S1131A607E838F8398872DEB37E346E85BE3698DAC
S1131A707A8D8B8D9C8D0E945B1669877A878B8704
S1131A809C872DEB37E346E85BE369817A818B81A0
S1131A909C810E945B166D877E878F87988BE09070
S1131AA06000F09061000091620010916300E98A87
S1131AB0FA8A0B8B1C8B8090880090908900A090F0
S1131AC08A00B0908B00E0908400F0908500009133
S1131AD0860010918700E98EFA8E0B8F1C8F409040
S1131AE08000509081006090820070908300C090CC
S1131AF06000D0906100E0906200F0906300C50146
S1131B00B40190582D813E814F8158850E945B1607
S1131B1069837A838B839C83298D3A8D4B8D5C8D6D
S1131B2069857A858B859C850E945B169B01AC0137
S1131B3069817A818B819C810E94D01369837A8325
S1131B408B839C83A30192016D857E858F85988903
S1131B500E945B169B01AC0169817A818B819C8117
S1131B600E94D013A70196010E94D11360936000D4
S1131B7070936100809362009093630040908000B2
S1131B80509081006090820070908300C090880023
S1131B90D0908900E0908A00F0908B0029893A89DE
S1131BA04B895C896D817E818F8198850E945B164B
S1131BB069837A838B839C83298D3A8D4B8D5C8DCD
S1131BC06D857E858F8598890E945B169B01AC018B
S1131BD069817A818B819C810E94D11369837A8384
S1131BE08B839C83A301920169857A858B859C856F
S1131BF00E945B169B01AC0169817A818B819C8177
S1131C000E94D013A70196010E94D113609388000B
S1131C107093890080938A0090938B004090800099
S1131C20509081006090820070908300C090840086
S1131C30D0908500E0908600F090870029893A8949
S1131C404B895C8969857A858B859C850E945B16A6
S1131C5069837A838B839C83A50194016D857E853A
S1131C608F8598890E945B169B01AC0169817A81FA
S1131C708B819C810E94D01369837A838B839C839C
S1131C80A30192016D817E818F8198850E945B16EC
S1131C909B01AC0169817A818B819C810E94D11363
S1131CA0A70196010E94D11360938400709385006C
S1131CB08093860090938700C0908000D09081002C
S1131CC0E0908200F090830029893A894B895C89ED
S1131CD06D857E858F8598890E945B162B013C015A
S1131CE0A501940169857A858B859C850E945B1684
S1131CF09B01AC01C301B2010E94D1134B015C01F1
S1131D00298D3A8D4B8D5C8D6D817E818F81988577
S1131D100E945B169B01AC01C501B4010E94D01363
S1131D20A70196010E94D1136093800070938100F3
S1131D3080938200909383006091600070916100B1
S1131D408091620090916300209160003091610065
S1131D5040916200509163008090880090908900C7
S1131D60A0908A00B0908B00409088005090890029
S1131D7060908A0070908B00E0908400F090850061
S1131D800091860010918700ED82FE820F831887F0
S1131D90E0908400F0908500009186001091870007
S1131DA0E986FA860B871C87E0908000F09081001A
S1131DB00091820010918300E982FA820B831C83D4
S1131DC0E0908000F09081000091820010918300E7
S1131DD0ED86FE860F87188B0E945B166B017C01D3
S1131DE0A3019201C501B4010E945B169B01AC01E1
S1131DF0C701B6010E94D1134B015C0129853A85C4
S1131E004B855C856D817E818F8198850E945B16F0
S1131E109B01AC01C501B4010E94D1134B015C01CB
S1131E202D853E854F85588969817A818B819C8176
S1131E300E945B169B01AC01C501B4010E94D11341
S1131E400E9434026B017C0120916000309161009A
S1131E5040916200509163000E945B1660936000A1
S1131E6070936100809362009093630020918800D6
S1131E703091890040918A0050918B00C701B601CE
S1131E800E945B16609388007093890080938A0097
S1131E9090938B00209184003091850040918600BE
S1131EA050918700C701B6010E945B1660938400BD
S1131EB07093850080938600909387002091800022
S1131EC0309181004091820050918300C701B60196
S1131ED00E945B166093800070938100809382005F
S1131EE090938300C85ADF4F0FB6F894DEBF0FBE3D
S1131EF0CDBFDF91CF911F910F91FF90EF90DF90B5
S1131F00CF90BF90AF909F908F907F906F905F9095
S1131F104F903F902F9008954F925F926F927F92CF
S1131F208F929F92AF92BF92CF92DF92EF92FF92E5
S1131F300F931F93CF93DF93CDB7DEB72E970FB6D2
S1131F40F894DEBF0FBECDBF1A8219821C821B8299
S1131F501E821D8240E950E060E08AE30E940D0188
S1131F6080919000811105C083E08A95F1F700000B
S1131F70F1CF40E950E06EE08BE30E948100E0E99C
S1131F80F0E08081C180D12CD82A82818380912C79
S1131F90982A8481E580F12CF82A80854184512C8B
S1131FA0582A82856384712C782A8485058510E0FB
S1131FB0182BAE014B5F5F4FBE016D5F7F4FCE01AB
S1131FC001960E941802B601DD0C880B990B0E9441
S1131FD0431520E030E040E858E30E945B165B01C3
S1131FE06C01B801665E7F4F072E000C880B990BBD
S1131FF00E94431523E333E343E851E40E94CF14E2
S113200024E33AEF4EE85CE30E945B166F83788723
S113201089879A87B301605E7F4F072E000C880B77
S1132020990B0E94431523E333E343E851E40E94F0
S1132030CF1424E33AEF4EE85CE30E945B166B870F
S11320407C878D879E87B20166597F4F072E000CCF
S1132050880B990B0E94431523E333E343E851E4CF
S11320600E94CF1424E33AEF4EE85CE30E945B162F
S11320702B013C016D817E81072E000C880B990B8E
S11320800E94431520E030E44BEA54E40E94CF144C
S11320909F938F937F936F936B817C81072E000CAA
S11320A0880B990B0E94431520E030E44BEA54E47A
S11320B00E94CF149F938F937F936F9369817A814A
S11320C0072E000C880B990B0E94431520E030E486
S11320D04BEA54E40E94CF149F938F937F936F93A2
S11320E0B701FF0C880B990B0E94431520E030E0E8
S11320F040E858E30E945B169F938F937F936F93FE
S1132100B401990C880B990B0E94431520E030E030
S113211040E858E30E945B169F938F937F936F93DD
S1132120EF80F88409851A852B853C854D855E856D
S1132130C301B2010E9448070FB6F894DEBF0FBE78
S1132140CDBF2E960FB6F894DEBF0FBECDBFDF9184
S1132150CF911F910F91FF90EF90DF90CF90BF90A0
S1132160AF909F908F907F906F905F904F90089565
S11321702F923F924F925F926F927F928F929F9293
S1132180AF92BF92CF92DF92EF92FF920F931F9381
S1132190CF93DF93CDB7DEB762970FB6F894DEBF67
S11321A00FBECDBF1C018B015A8B498B609160001F
S11321B07091610080916200909163008090600052
S11321C090906100A0906200B0906300C09088007D
S11321D0D0908900E0908A00F0908B0020918800D4
S11321E03091890040918A0050918B002D833E8369
S11321F04F835887209188003091890040918A004C
S113220050918B0029833A834B835C832091840013
S113221030918500409186005091870029873A8744
S11322204B875C8740906000509061006090620032
S11322307090630020918000309181004091820071
S1132240509183002D873E874F87588B9B01AC01AB
S11322500E94D113A50194010E945B164B015C01FD
S1132260A7019601C701B6010E94D1132D813E81B9
S11322704F8158850E945B169B01AC01C501B401D6
S11322800E94D11320E030E040E85FE30E94D013C5
S11322906B017C0129813A814B815C81CA01B901BE
S11322A00E94D11329853A854B855C850E945B1673
S11322B04B015C01A3019201C301B2010E94D1133D
S11322C02D853E854F8558890E945B169B01AC0184
S11322D0C501B4010E94D013A70196010E946B149A
S11322E0E989FA896083718382839383609188008A
S11322F07091890080918A0090918B008090800079
S113230090908100A0908200B0908300C090600003
S1132310D0906100E0906200F090630040908400EF
S11323205090850060908600709087009B01AC01FE
S11323300E94D113A50194010E945B164B015C011C
S1132340A7019601C701B6010E94D113A30192010E
S11323500E945B169B01AC01C501B4010E94D1131C
S11323600E943D14DC01CB01B058F80180839183B5
S1132370A283B383609160007091610080916200D8
S1132380909163008090600090906100A090620042
S1132390B0906300C0908000D0908100E0908200F3
S11323A0F090830020918000309181004091820060
S11323B0509183002D833E834F835887209184005E
S11323C030918500409186005091870029833A839B
S11323D04B835C8320918000309181004091820086
S11323E05091830029873A874B875C87409060002F
S11323F050906100609062007090630020918800AA
S11324003091890040918A0050918B002D873E873E
S11324104F87588B9B01AC010E94D113A5019401F5
S11324200E945B164B015C01A7019601C701B6012E
S11324300E94D1132D813E814F8158850E945B16E5
S11324409B01AC01C501B4010E94D11320E030E02E
S113245040E85FE30E94D0136B017C0129813A813B
S11324604B815C81CA01B9010E94D11329853A8547
S11324704B855C850E945B164B015C01A3019201B4
S1132480C301B2010E94D1132D853E854F85588921
S11324900E945B169B01AC01C501B4010E94D013DC
S11324A0A70196010E946B14F101608371838283FA
S11324B0938362960FB6F894DEBF0FBECDBFDF9153
S11324C0CF911F910F91FF90EF90DF90CF90BF902D
S11324D0AF909F908F907F906F905F904F903F90C0
S11324E02F9008951F93CF93DF9319B3C0E7D0E0E3
S11324F088810E94A51389810E94A5138A810E9464
S1132500A5138B810E94A513C8E6D0E088810E94A0
S1132510A51389810E94A5138A810E94A5138B812A
S11325200E94A513CCE6D0E088810E94A51389817E
S11325300E94A5138A810E94A5138B810E94A51372
S1132540812F0E94A5138AE00E94A513DF91CF91E9
S11325501F9108951F920F920FB60F9211242F937B
S11325603F934F935F936F937F938F939F93AF9317
S1132570BF93EF93FF930E948C0F4CE650E068E604
S113258070E080E790E00E94B8100E947212FF9100
S1132590EF91BF91AF919F918F917F916F915F91D7
S11325A04F913F912F910F900FBE0F901F90189550
S11325B011B88CE080B9089594EA96BF4FEF50E0CB
S11325C060E070E006B607FC06C04150510961099D
S11325D07109C0F704C0452B462B472B11F191B16B
S11325E0987F983011F09031F1F483B984E886BF74
S11325F08FEF90E0A0E0B0E006B607FC05C00197BD
S1132600A109B109C8F704C0892B8A2B8B2B69F067
S113261091B1987F983159F081E0903449F480E089
S1132620089581E0089581E0089581E0089580E0AF
S1132630089584E986BF80E090E006B604FE05C0F4
S11326400196811521E09207C1F7089583B984E8C2
S113265086BF8FEF90E0A0E0B0E006B607FC05C0AF
S11326600197A109B109C8F704C0892B8A2B8B2BC8
S113267039F091B1987F81E0983219F480E008959F
S113268081E0089584EC86BF8FEF90E0A0E0B0E095
S113269006B607FC05C00197A109B109C8F704C033
S11326A0892B8A2B8B2B11F083B1089580E0089538
S11326B084E886BF8FEF90E0A0E0B0E006B607FCA8
S11326C005C00197A109B109C8F704C0892B8A2B59
S11326D08B2B11F083B1089580E008958F929F921F
S11326E0AF92BF92EF92FF920F934C01CB01BA01CC
S11326F0222319F0599A28E001C020E130E040E09B
S113270050E00E942717A12CB12CCA01B901A501E0
S113271094010E9427172150310930BD29B98AB18B
S113272088618AB980B5866880BD002331F0579AE4
S1132730F0929F00E0929E0078940F91FF90EF90AA
S1132740BF90AF909F908F9008955D9BFECF8CB902
S113275008951F920F920FB60F9211242F933F9357
S11327604F935F936F937F938F939F93AF93BF9395
S1132770EF93FF93E0919E00F0919F000995FF91E4
S1132780EF91BF91AF919F918F917F916F915F91E5
S11327904F913F912F910F900FBE0F901F9018955E
S11327A05058BB27AA270E94E8130C9414160E94C1
S11327B0061638F00E940D1620F039F49F3F19F4E4
S11327C026F40C94C8150EF4E095E7FB0C94C2159E
S11327D0E92F0E94251658F3BA1762077307840776
S11327E0950720F079F4A6F50C9447160EF4E095BD
S11327F00B2EBA2FA02D0B01B90190010C01CA01B7
S1132800A0011124FF27591B99F0593F50F4503E61
S113281068F11A16F040A22F232F342F4427585F53
S1132820F3CF469537952795A795F0405395C9F76B
S11328307EF41F16BA0B620B730B840BBAF0915023
S1132840A1F0FF0FBB1F661F771F881FC2F70EC0C2
S1132850BA0F621F731F841F48F487957795679595
S1132860B795F7959E3F08F0B0CF9395880F08F081
S11328709927EE0F9795879508959F939F77EEE399
S113288089379E0728F4E4E5F0E00E94F2150CC0B5
S11328900E947E159058A2EA2AED3FE049EC5FE3DE
S11328A00E94E8130E9414160F9007FC9058089594
S11328B00E94061660F080E891E009F49EEF0E9401
S11328C00D1628F040E851E071F45EEF0CC00C9452
S11328D0C8150C944716E92FE0780E94251640F39A
S11328E0092E052AB1F3261737074807590738F088
S11328F00E2E07F8E02569F0E025E0640AC0EF63D6
S113290007F8009407FADB01B9019D01DC01CA0153
S1132910AD01EF930E94E6140E9414160E949B14CA
S11329205F91552339F02BED3FE049E450FD49EC2C
S11329300C94D1130895DF93DD27B92FBF7740E8B6
S11329405FE31616170648075B0718F4D92F0E9491
S113295053169F938F937F936F930E940E17E8E60D
S1132960F0E00E94CB150E9414162F913F914F91D5
S11329705F910E946E16DD2351F09058A2EA2AED71
S11329803FE049EC5FE3D0785D270E94E813DF91D4
S11329900C9414160E949E1508F481E008950E9478
S11329A0E3140C9414160E940D1658F00E94061697
S11329B040F029F45F3F29F00C94C21551110C9496
S11329C048160C94C8150E94251668F39923B1F390
S11329D0552391F3951B550BBB27AA276217730741
S11329E0840738F09F5F5F4F220F331F441FAA1FD5
S11329F0A9F335D00E2E3AF0E0E832D09150504091
S1132A00E695001CCAF72BD0FE2F29D0660F771F3E
S1132A10881FBB1F261737074807AB07B0E809F024
S1132A20BB0B802DBF01FF2793585F4F3AF09E3FA9
S1132A30510578F00C94C2150C9448165F3FE4F3EA
S1132A40983ED4F3869577956795B795F7959F5FEC
S1132A50C9F7880F911D9695879597F90895E1E038
S1132A60660F771F881FBB1F621773078407BA0797
S1132A7020F0621B730B840BBA0BEE1F88F7E095F2
S1132A800895E89409C097FB3EF49095809570955D
S1132A9061957F4F8F4F9F4F9923A9F0F92F96E9A6
S1132AA0BB279395F695879577956795B795F1111B
S1132AB0F8CFFAF4BB0F11F460FF1BC06F5F7F4FB8
S1132AC08F4F9F4F16C0882311F096E911C07723CA
S1132AD021F09EE8872F762F05C0662371F096E8D3
S1132AE0862F70E060E02AF09A95660F771F881FA2
S1132AF0DAF7880F9695879597F90895DF93CF9322
S1132B001F930F938B01EC01E5E9F0E00E94CB15D4
S1132B100E9414169801AE018B01EC0160E070E094
S1132B2080E89FE30E94D0130E94CE169801AE0164
S1132B300F911F91CF91DF910C946E16990F00089D
S1132B40550FAA0BE0E8FEEF16161706E807F9077B
S1132B50C0F012161306E407F50798F0621B730B16
S1132B60840B950B39F40A2661F0232B242B252B97
S1132B7021F408950A2609F4A140A6958FEF811D3A
S1132B80811D089597F99F6780E870E060E00895DB
S1132B909FEF80EC0895DF93CF931F930F93FF92E1
S1132BA0EF92DF927B018C01689406C0DA2EEF016C
S1132BB00E946E16FE01E894A591259135914591E8
S1132BC05591A6F3EF010E94E813FE019701A801B5
S1132BD0DA9469F7DF90EF90FF900F911F91CF91F6
S1132BE0DF9108959F938F937F936F93FF93EF9358
S1132BF09B01AC010E945B16EF91FF910E94CB15E3
S1132C002F913F914F915F910C945B1600240A948D
S1132C101616170618060906089500240A941216B3
S1132C201306140605060895092E0394000C11F4E6
S1132C30882352F0BB0F40F4BF2B11F460FF04C093
S1132C406F5F7F4F8F4F9F4F089557FD9058440FEC
S1132C50551F59F05F3F71F04795880F97FB991FF7
S1132C6061F09F3F79F087950895121613061406B4
S1132C70551FF2CF4695F1DF08C016161706180641
S1132C80991FF1CF86957105610508940895E8941C
S1132C90BB2766277727CB0197F908950E949E15D5
S1132CA008F48FEF08959B01AC0160E070E080E8C8
S1132CB09FE30C94CF140E946E160C9414160E9479
S1132CC0061638F00E940D1620F0952311F00C948E
S1132CD0C2150C94C81511240C9448160E9425168C
S1132CE070F3959FC1F3950F50E0551F629FF0015B
S1132CF0729FBB27F00DB11D639FAA27F00DB11D74
S1132D00AA1F649F6627B00DA11D661F829F2227FC
S1132D10B00DA11D621F739FB00DA11D621F839F83
S1132D20A00D611D221F749F3327A00D611D231F59
S1132D30849F600D211D822F762F6A2F11249F57A7
S1132D4050409AF0F1F088234AF0EE0FFF1FBB1FAA
S1132D50661F771F881F91505040A9F79E3F510569
S1132D6080F00C94C2150C9448165F3FE4F3983E2F
S1132D70D4F3869577956795B795F795E7959F5F13
S1132D80C1F7FE2B880F911D9695879597F90895A5
S1132D9019F416F40C94C8150C9412170E942D16ED
S1132DA0B8F39923C9F3B6F39F57550B87FF0E94D5
S1132DB020170024A0E640EA900180585695979584
S1132DC028F4805C660F771F881F20F026173707CA
S1132DD0480730F4621B730B840B202931294A2BDA
S1132DE0A69517940794202531254A2758F7660F8E
S1132DF0771F881F20F026173707480730F4620B27
S1132E00730B840B200D311D411DA09581F7B90171
S1132E10842F9158880F9695879508959B01AC014E
S1132E200C945B169F3F31F0915020F48795779571
S1132E306795B795880F911D9695879597F908958D
S1132E4091505040660F771F881FD2F70895A1E272
S1132E501A2EAA1BBB1BFD010DC0AA1FBB1FEE1F10
S1132E60FF1FA217B307E407F50720F0A21BB30B5B
S1132E70E40BF50B661F771F881F991F1A9469F7D7
S1132E8060957095809590959B01AC01BD01CF0133
S1092E900895F894FFCF41
S10B2E960000803F0000803FB2
S9030000FC
